{
  "contractName": "Claim",
  "abi": [
    {
      "constant": true,
      "inputs": [
        {
          "internalType": "uint256",
          "name": "",
          "type": "uint256"
        }
      ],
      "name": "claimants",
      "outputs": [
        {
          "internalType": "address",
          "name": "",
          "type": "address"
        }
      ],
      "payable": false,
      "stateMutability": "view",
      "type": "function"
    },
    {
      "constant": false,
      "inputs": [
        {
          "internalType": "uint256",
          "name": "antiqueId",
          "type": "uint256"
        }
      ],
      "name": "claim",
      "outputs": [
        {
          "internalType": "uint256",
          "name": "",
          "type": "uint256"
        }
      ],
      "payable": false,
      "stateMutability": "nonpayable",
      "type": "function"
    },
    {
      "constant": true,
      "inputs": [],
      "name": "getClaimants",
      "outputs": [
        {
          "internalType": "address[16]",
          "name": "",
          "type": "address[16]"
        }
      ],
      "payable": false,
      "stateMutability": "view",
      "type": "function"
    }
  ],
  "bytecode": "0x608060405234801561001057600080fd5b50610322806100206000396000f3fe608060405234801561001057600080fd5b50600436106100415760003560e01c8063379607f514610046578063a6cb8be314610088578063d1c67d58146100ce575b600080fd5b6100726004803603602081101561005c57600080fd5b810190808035906020019092919050505061013c565b6040518082815260200191505060405180910390f35b610090610216565b6040518082601060200280838360005b838110156100bb5780820151818401526020810190506100a0565b5050505090500191505060405180910390f35b6100fa600480360360208110156100e457600080fd5b8101908080359060200190929190505050610297565b604051808273ffffffffffffffffffffffffffffffffffffffff1673ffffffffffffffffffffffffffffffffffffffff16815260200191505060405180910390f35b600080821015801561014f5750600f8211155b6101c1576040517f08c379a00000000000000000000000000000000000000000000000000000000081526004018080602001828103825260108152602001807f4964206e6f7420617661696c61626c650000000000000000000000000000000081525060200191505060405180910390fd5b33600083601081106101cf57fe5b0160006101000a81548173ffffffffffffffffffffffffffffffffffffffff021916908373ffffffffffffffffffffffffffffffffffffffff160217905550819050919050565b61021e6102ca565b600060108060200260405190810160405280929190826010801561028d576020028201915b8160009054906101000a900473ffffffffffffffffffffffffffffffffffffffff1673ffffffffffffffffffffffffffffffffffffffff1681526020019060010190808311610243575b5050505050905090565b600081601081106102a457fe5b016000915054906101000a900473ffffffffffffffffffffffffffffffffffffffff1681565b60405180610200016040528060109060208202803883398082019150509050509056fea265627a7a723158204c9c34ea84be4c2727159faa2145889b5d70fe3c32262ce8a0708f9cd61150c964736f6c634300050c0032",
  "source": "//This is the Contract where a User can lay claim to a rare antique\n\npragma solidity ^0.5.0;\n\ncontract Claim {\n    address[16] public claimants;\n    //Claim an antique function\n    function claim(uint antiqueId) public returns (uint) {\n        require(antiqueId >= 0 && antiqueId <= 15, \"Id not available\");\n\n        claimants[antiqueId] = msg.sender;\n\n        return antiqueId;\n    }\n\n    //Get a list of the claim owners\n    function getClaimants() public view returns(address[16] memory) {\n        return claimants;\n    }\n}",
  "sourcePath": "/home/emmanuel/consensys-academy/rare-antique-dApp/contracts/Claim.sol",
  "compiler": {
    "name": "solc",
    "version": "0.5.12+commit.7709ece9.Emscripten.clang"
  },
  "schemaVersion": "3.0.20",
  "updatedAt": "2020-01-31T03:55:42.924Z",
  "devdoc": {
    "methods": {}
  },
  "userdoc": {
    "methods": {}
  }
}